:100B00004C470C46696C65206E6F7420666F756E7D
:100B100064004261642042696E617279004F7574AD
:100B2000206F66206D656D6F727900040FEA144BBB
:100B30000F560F6B0F470F600F750F0B0F290F38F4
:100B40000F820F8E0FA30FA20FAB0FC30F0000CBAE
:100B500010DF100C11EB0F0910F310AA139313AB55
:100B600011C6113C111D11E111061280115711958A
:100B700010A8102710BB1078103A10591000001B55
:100B80001329133B13551363137613150F1F0FBB54
:100B900013CD13E413051417142F14CA12EE12DC2C
:100BA00012041300000000B012BD12A012901280B7
:100BB000127012B214D214631453148914A814E0DE
:100BC00014000049125C122D120000000000000009
:100BD0000000000000000000000000000000000015
:100BE0000000000000000000000000000000000005
:100BF00000000000000000000000000000000000F5
:100C000000000000000000000000000000000000E4
:100C100000000000000000000000000000000000D4
:100C200000000000000000000000000A3D3D3D20E3
:100C3000535441434B2044554D50203D3D3D0A0007
:100C400042503A2030780020050EB00BA90B851FCA
:100C5000A903851E4C1B0E20F314A90220330EB0ED
:100C60000BA90B851FA903851E4C1B0EA902203959
:100C70000EB00BA90B851FA903851E4C1B0E203F30
:100C80000E903564656466202115902CC956D028D5
:100C90002021159023C94DD01F202115901AC9423B
:100CA000D01620211590118562202115900A8563A8
:100CB0002021159003856438B00BA90B851FA9125C
:100CC000851E201B0E6410A5648511A563F002E645
:100CD00011E611E61118A5116562851138A510E914
:100CE000028510A511E900851120450EB00BA90B56
:100CF000851FA91D851E4C1B0E6460A51B8561A95F
:100D0000FE8510641120450EB00BA90B851FA91D8F
:100D1000851E4C1B0E646BA51B856CA200A00220D7
:100D20002115916BC8202115916BC8E8E46290EF02
:100D3000A5638569A564856A18A5616902856864EB
:100D400067A569056AF0152021159267E667D0024C
:100D5000E668A569D002C66AC66980E5A567F002A3
:100D6000E6686467A9028569A2008A1A0AA8A90030
:100D70009160B16B8569C8A5689160B16B856A2087
:100D8000211590169267E667D002E668A569D00241
:100D9000C66AC669A56A0569D0E5A567F002E66876
:100DA0006467E8E46290C3A902851AA56C851B20DC
:100DB0004B0E20E10E20010FA902851AA561851BAB
:100DC0004C4B0EA000B90007F007C8C040D0F61881
:100DD00060C8C040D0021860B90007D002186098FF
:100DE000186900851EA9076900851F640DA200B956
:100DF0000007F00CC92ED002E60DE8C8C040D0EFC5
:100E00008AA60D38605ADA48A51E48A51F4820C397
:100E10000D68851F68851E68FA7A60A2116C220031
:100E200060A2126C220060A2136C220060A2146CFB
:100E3000220060A2046C220060A20A6C220060A260
:100E40000B6C220060A2006C220060A2016C2200E8
:100E50006048DA5AA92B851EA90C851F201B0EA9F4
:100E600040851EA90C851F201B0EA56320270E2080
:100E70002D0EA663E8E8E8E8E8E8E8E8E8E8A01569
:100E8000A930DA20210EFAA931DA20210EFA8ADA05
:100E900020270EFAA93ADA20210EFAA920DA202119
:100EA0000EFABD0001DA20270EFAE463D023A92050
:100EB000DA20210EFAA93CDA20210EFAA92DDA2037
:100EC000210EFAA942DA20210EFAA950DA20210EC9
:100ED000FADA202D0EFACA88D0A6202D0E7AFA68EA
:100EE000606464A5611A856564661A8567A002B1AD
:100EF000608568C8B1608569A0006463606C220089
:100F000060BA866DB168C8AA7C2B0BA56F48B16822
:100F1000C8AA7C2B0B68856FB168C8AA7C2B0B68AC
:100F2000856EB168C8AA7C2B0BA9001F6C02A901B1
:100F300048B168C8AA7C2B0BA9000F6C02A9014814
:100F4000B168C8AA7C2B0BB168C848B168C848B161
:100F500068C8AA7C2B0BA90048B168C8AA7C2B0BD7
:100F6000A9004848B168C8AA7C2B0BA90148B16800
:100F7000C8AA7C2B0BA90148A90048B168C8AA7C63
:100F80002B0BBABD010148B168C8AA7C2B0BBABDB6
:100F90000101856ABD020148A56A48B168C8AA7CFA
:100FA0002B0B6868B168C8AA7C2B0BBABD01018500
:100FB0006ABD02019D0101A56A9D0201B168C8AA2E
:100FC0007C2B0BBABD0201856ABD04019D0201A5FF
:100FD0006A9D0401BD0101856ABD03019D0101A552
:100FE0006A9D0301B168C8AA7C2B0BBA18BD040125
:100FF0007D02019D0401BD03017D01019D0301E806
:10100000E89AB168C8AA7C2B0BBA38BD0401FD026E
:10101000019D0401BD0301FD01019D0301E8E89A62
:10102000B168C8AA7C2B0BBABD02015D01019D020B
:1010300001E89AB168C8AA7C2B0BB168C8856AF030
:1010400011BA1E02013E0101C66AF00680F4800258
:1010500080F0B168C8AA7C2B0BB168C8856AF01112
:10106000BA5E01017E0201C66AF00680F480028049
:10107000F0B168C8AA7C2B0BBABD04015D02019DCA
:101080000401BD03015D01019D0301E8E89AB16817
:10109000C8AA7C2B0BBABD02013D01019D0201E8EB
:1010A0009AB168C8AA7C2B0BBABD02011D01019D33
:1010B0000201E89AB168C8AA7C2B0BBABD010149AC
:1010C000FF9D0101B168C8AA7C2B0BBA18BD0201B3
:1010D0007D01019D0201E89AB168C8AA7C2B0BBA78
:1010E00038BD0201FD01019D0201E89AB168C8AA5C
:1010F0007C2B0BBA38A900FD02019D0201A900FD5D
:1011000001019D0101B168C8AA7C2B0BBA38A90066
:10111000FD01019D0101B168C8AA7C2B0BBAA90190
:10112000856ABD0201DD0101F0049002646AE89A5B
:10113000A56A9D0101B168C8AA7C2B0BBA646ABD7F
:101140000201DD0101B002E66AE89AA56A9D01018B
:10115000B168C8AA7C2B0BBAA901856ABD0301DD61
:101160000101D006BD0401DD0201F0049002646AB1
:10117000E8E8E89AA56A9D0101B168C8AA7C2B0B32
:10118000BA646ABD0301DD0101B004E66A800CD0D7
:101190000ABD0401DD0201B002E66AE8E8E89AA5AA
:1011A0006A9D0101B168C8AA7C2B0BBA646ABD02B2
:1011B00001DD0101D002E66AE89AA56A9D0101B14C
:1011C00068C8AA7C2B0BBA646ABD0201DD0101F07C
:1011D00002E66AE89AA56A9D0101B168C8AA7C2B5B
:1011E0000BBA646ABD0301DD0101D00ABD0401DD53
:1011F0000201D002E66AE8E8E89AA56A9D0101B119
:1012000068C8AA7C2B0BBAA901856ABD0301DD0160
:1012100001D00ABD0401DD0201D002646AE8E8E8F9
:101220009AA56A9D0101B168C8AA7C2B0BBABD03BF
:1012300001856ABD0201856BBD0101A8B16AE8E8BC
:101240009A48B168C8AA7C2B0BB168C81865664873
:10125000A567690048B168C8AA7C2B0BB168C8189B
:10126000656648B168C8656748B168C8AA7C2B0B39
:10127000FAF0053898F168A8C8B168C8AA7C2B0BA9
:1012800068F00518987168A8C8B168C8AA7C2B0BCB
:10129000FAD0053898F168A8C8B168C8AA7C2B0BA9
:1012A00068D00518987168A8C8B168C8AA7C2B0BCB
:1012B00018987168A8C8B168C8AA7C2B0B3898F137
:1012C00068A8C8B168C8AA7C2B0BB168C8846AA892
:1012D000B164A46A48B168C8AA7C2B0BB168C88401
:1012E0006AA8689164A46AB168C8AA7C2B0BB1682B
:1012F000C8846AA8B16448C8B16448A46AB168C81F
:10130000AA7C2B0BB168C8846AA8C86891648868F5
:101310009164A46AB168C8AA7C2B0BB168C8AAB54D
:101320000048B168C8AA7C2B0BB168C8AAB50048B0
:10133000E8B50048B168C8AA7C2B0BB168C8AAB54B
:101340000048E8B50048E8B50048E8B50048B1688D
:10135000C8AA7C2B0BB168C8AA689500B168C8AA56
:101360007C2B0BB168C8AAE8689500CA689500B1E3
:1013700068C8AA7C2B0BB168C8AAE8E8E8689500A1
:10138000CA689500CA689500CA689500B168C8AA7D
:101390007C2B0B18A5637168C8AAFE0001D004CA93
:1013A000FE0001B168C8AA7C2B0B18A5637168C840
:1013B000AAFE0001B168C8AA7C2B0B18A56371684E
:1013C000C8AABD000148B168C8AA7C2B0B18A56348
:1013D0007168C8AABD000148CABD000148B168C80B
:1013E000AA7C2B0B18A5637168C8AABD000148CA66
:1013F000BD000148CABD000148CABD000148B1682E
:10140000C8AA7C2B0B18A5637168C8AA689D000147
:10141000B168C8AA7C2B0B18A5637168C8AACA68F2
:101420009D0001E8689D0001B168C8AA7C2B0B18DB
:10143000A5637168C8AACACACA689D0001E8689D08
:101440000001E8689D0001E8689D0001B168C8AA34
:101450007C2B0BB168C8AA5A20FD0E7AB168C8AAC5
:101460007C2B0BB168C8AA5AA46EA56F20FD0ED0C4
:1014700004876C8002076C9004976C8002176C855F
:101480006F7AB168C8AA7C2B0BA56348BA8663B192
:1014900068C8AAA900E000F0088002800448CA8059
:1014A000F4B168C8AA7C2B0B688563B168C8AA7CB4
:1014B0002B0BB168C8856A5AA56848A56948A46A13
:1014C000B1608568C8B1608569A000B168C8AA7CB0
:1014D0002B0B6885696885687AB168C8AA7C2B0B74
:1014E00020510EB168C8AA7C2B0B80034C040FA6B8
:1014F0006D9A605ADA20C30DE000D022A000B11E20
:10150000F003C880F9A92E911EC8A942911EC8A94E
:1015100049911EC8A94E911EC8A900911E98FA7A39
:10152000605ADAA566C545D00FA565C544D0092027
:101530003F0E901564656466641AA90A851BA4654C
:0C154000B11AE665D002E66638FA7A605F
:00000001FF
