:100B00004C400C46696C65206E6F7420666F756E84
:100B100064004261642042696E617279004F7574AD
:100B2000206F66206D656D6F7279003C0F601783D2
:100B30000F8E0FA30F7F0F980FAD0F430F610F7034
:100B40000FBA0FC60FDB0FDA0FE30FFB0F00007EAB
:100B5000129212BF12A110BF10A6125D1546155EAB
:100B6000137913EF12D0129413B91333130A13F637
:100B700011261288115612D9119B11BA110000CEFC
:100B800014DC14EE140815161529154D0F570F6EA9
:100B90001580159715B815CA15E2157D14A1148F87
:100BA00014B714000000006314701453144314337A
:100BB0001423142817481716160616FF161E175664
:100BC000170000FC130F14E01300003C166C164CC9
:100BD000167D169D16C616091239124F11DD101614
:100BE00011661200000000000000002310511033B5
:100BF0001000008510F51600000000000000000045
:100C000000000000000000000000000000000000E4
:100C100000000000000000000000000000000000D4
:100C200000000000000000000000000A3D3D3D20E3
:100C3000535441434B2044554D50203D3D3D0A0007
:100C4000646D646E20060EB00BA90B851FA9038589
:100C50001E4C120E206917A902202A0EB00BA90BF8
:100C6000851FA903851E4C120EA90220300EB00B61
:100C7000A90B851FA903851E4C120E20360E903538
:100C80006465646620B017902CC956D02820B01730
:100C90009023C94DD01F20B017901AC942D01620FA
:100CA000B0179011856220B017900A856320B017A5
:100CB0009003856438B00BA90B851FA912851E20EF
:100CC000120EA56D056EF00BA56D851AA56E851B20
:100CD00020420E6410A5648511A563F002E611E6BA
:100CE00011E61118A5116562851138A510E9028574
:100CF00010A511E9008511203C0EB00BA90B851F32
:100D0000A91D851E4C120E64606411A51B8561A986
:100D1000FE8510203C0EB00BA90B851FA91D851E5A
:100D20004C120E646BA51B856CA200A00220B017AC
:100D3000916BC820B017916BC8E8E46290EFA5638F
:100D40008569A564856A18A561690285686467A5D7
:100D500069056AF01520B0179267E667D002E66869
:100D6000A569D002C66AC66980E5A567F002E66893
:100D70006467A9028569A2008A1A0AA8A56791601A
:100D8000B16B8569C8A5689160B16B856A20B017A1
:100D900090169267E667D002E668A569D002C66A37
:100DA000C669A56A0569D0E5E8E462B02F8A0AA899
:100DB000B16B8510C8B16B851138A900E567851244
:100DC000A901E9008513A513C511D004A512C5100A
:100DD000B0A6A567F002E6686467809CA902851A40
:100DE000A56C851B20420EA5614820170F20390FE6
:100DF000A902851A68851B4C420EA2366C2200603F
:100E0000A2376C220060485ADA20FA0DC902FA7A39
:100E10006860A2116C220060A2126C220060A21312
:100E20006C220060A2146C220060A2046C2200609C
:100E3000A20A6C220060A20B6C220060A2006C224D
:100E40000060A2016C22006048DA5ABA8A1869056B
:100E5000856AA92B851EA90C851F20120EA663E8A2
:100E6000E8E8E8E8E8E8E8E8E8A015A930DA2018BA
:100E70000EFAA931DA20180EFA8ADA201E0EFAA923
:100E80003ADA20180EFAA920DA20180EFAE46AD00D
:100E900044A920DA20180E20180E20180EFAA93CBA
:100EA000DA20180EFAA92DDA20180EFAA953DA2042
:100EB000180EFAA950DA20180EFAE463D052A92FBE
:100EC000DA20180EFAA942DA20180EFAA950DA2010
:100ED000180EFA803BBD0001DA201E0EFAE463D042
:100EE00023A920DA20180EFAA93CDA20180EFAA954
:100EF0002DDA20180EFAA942DA20180EFAA950DAD3
:100F000020180EFADA20240EFACA88F0034C6B0E71
:100F100020240E7AFA6860646464666463646CA575
:100F2000611A85651A8567A002B1608568C8B160DD
:100F30008569A000606C220060BA866DB168C8AA9D
:100F40007C2B0BA56F48B168C8AA7C2B0B68856FFA
:100F5000B168C8AA7C2B0B68856EB168C8AA7C2BC7
:100F60000BA9007F6C02A90148B168C8AA7C2B0BB1
:100F7000A9006F6C02A90148B168C8AA7C2B0BB10B
:100F800068C848B168C848B168C8AA7C2B0BA900DA
:100F900048B168C8AA7C2B0BA9004848B168C8AA08
:100FA0007C2B0BA90148B168C8AA7C2B0BA901486E
:100FB000A90048B168C8AA7C2B0BBABD010148B191
:100FC00068C8AA7C2B0BBABD0101856ABD02014825
:100FD000A56A48B168C8AA7C2B0B6868B168C8AA22
:100FE0007C2B0BBABD0101856ABD02019D0101A5E3
:100FF0006A9D0201B168C8AA7C2B0BBABD020185AB
:101000006ABD04019D0201A56A9D0401BD0101851F
:101010006ABD03019D0101A56A9D0301B168C8AACB
:101020007C2B0BBABD030148BD040148B168C8AAB6
:101030007C2B0BBABD0301856ABD02019D0301BD76
:1010400001019D0201A56A9D0101B168C8AA7C2B1E
:101050000BBABD05018512BD06018513BD03019DB7
:101060000501BD04019D0601BD01019D0301BD02F5
:10107000019D0401A5129D0101A5139D0201B16806
:10108000C8AA7C2B0BB168C80ABA48866A1868657A
:101090006AAABD020148BD010148B168C8AA7C2BFB
:1010A0000BBA18BD04017D02019D0401BD03017D41
:1010B00001019D0301E8E89AB168C8AA7C2B0BBA2C
:1010C00038BD0401FD02019D0401BD0301FD0101C4
:1010D0009D0301E8E89AB168C8AA7C2B0BBABD044D
:1010E000018516BD03018517BD02018512BD0101F1
:1010F00085136418641964146415E8E89AA21D5AEB
:1011000020350F7ABAA5169D0201A5179D0101B1E0
:1011100068C8AA7C2B0BBABD04018516BD030185E6
:1011200017BD02018512BD0101851364186419649D
:10113000146415E8E89AA21E5A20350F7ABAA5164B
:101140009D0201A5179D0101B168C8AA7C2B0BBAAD
:10115000BD04018516BD03018517BD02018512BDC1
:10116000010185136418641964146415E8E89AA2EF
:101170001C5A20350F7ABAA5169D0201A5179D01AC
:1011800001B168C8AA7C2B0BBABD02015D01019DAB
:101190000201E89AB168C8AA7C2B0BB168C8856ABD
:1011A000F011BA1E02013E0101C66AF00680F48009
:1011B0000280F0B168C8AA7C2B0BB168C8856AF0C0
:1011C00011BA5E01017E0201C66AF00680F4800257
:1011D00080F0B168C8AA7C2B0BBABD04015D020186
:1011E0009D0401BD03015D01019D0301E8E89AB181
:1011F00068C8AA7C2B0BBABD02013D01019D02010A
:10120000E89AB168C8AA7C2B0BBABD04013D020163
:101210009D0401BD03013D01019D0301E8E89AB170
:1012200068C8AA7C2B0BBABD02011D01019D0201F9
:10123000E89AB168C8AA7C2B0BBABD04011D020153
:101240009D0401BD03011D01019D0301E8E89AB160
:1012500068C8AA7C2B0BBABD010149FF9D0101B1F1
:1012600068C8AA7C2B0BBABD010149FF9D0101BDD5
:10127000020149FF9D0201B168C8AA7C2B0BBA1874
:10128000BD02017D01019D0201E89AB168C8AA7CF6
:101290002B0BBA38BD0201FD01019D0201E89AB194
:1012A00068C8AA7C2B0BBA38A900FD02019D020177
:1012B000A900FD01019D0101B168C8AA7C2B0BBAF0
:1012C00038A900FD01019D0101B168C8AA7C2B0B62
:1012D000BAA901856ABD0201DD0101F00490026432
:1012E0006AE89AA56A9D0101B168C8AA7C2B0BBA6D
:1012F000646ABD0201DD0101B002E66AE89AA56AEE
:101300009D0101B168C8AA7C2B0BBAA901856ABDF1
:101310000301DD0101D006BD0401DD0201F00490EE
:1013200002646AE8E8E89AA56A9D0101B168C8AA62
:101330007C2B0BBA646ABD0301DD0101B004E66ACF
:10134000800CD00ABD0401DD0201B002E66AE8E8C3
:10135000E89AA56A9D0101B168C8AA7C2B0BBA6402
:101360006ABD0201DD0101D002E66AE89AA56A9D24
:101370000101B168C8AA7C2B0BBA646ABD0201DD09
:101380000101F002E66AE89AA56A9D0101B168C808
:10139000AA7C2B0BBA646ABD0301DD0101D00ABD32
:1013A0000401DD0201D002E66AE8E8E89AA56A9D38
:1013B0000101B168C8AA7C2B0BBAA901856ABD03DB
:1013C00001DD0101D00ABD0401DD0201D002646A21
:1013D000E8E8E89AA56A9D0101B168C8AA7C2B0BD0
:1013E000BABD0301856ABD0201856BBD0101A8B1CB
:1013F0006AE8E89A48B168C8AA7C2B0BB168C8189B
:10140000656648A567690048B168C8AA7C2B0BB11E
:1014100068C818656648B168C8656748B168C8AAF1
:101420007C2B0BFAF0053898F168A8C8B168C8AAF7
:101430007C2B0B68F00518987168A8C8B168C8AA19
:101440007C2B0BFAD0053898F168A8C8B168C8AAF7
:101450007C2B0B68D00518987168A8C8B168C8AA19
:101460007C2B0B18987168A8C8B168C8AA7C2B0B94
:101470003898F168A8C8B168C8AA7C2B0BB168C8B5
:10148000846AA8B164A46A48B168C8AA7C2B0BB16D
:1014900068C8846AA8689164A46AB168C8AA7C2BE9
:1014A0000BB168C8846AA8B16448C8B16448A46A2A
:1014B000B168C8AA7C2B0BB168C8846AA8C86891B7
:1014C0006488689164A46AB168C8AA7C2B0BB1686F
:1014D000C8AAB50048B168C8AA7C2B0BB168C8AAD5
:1014E000B50048E8B50048B168C8AA7C2B0BB168C4
:1014F000C8AAB50048E8B50048E8B50048E8B50016
:1015000048B168C8AA7C2B0BB168C8AA689500B11D
:1015100068C8AA7C2B0BB168C8AAE8689500CA689D
:101520009500B168C8AA7C2B0BB168C8AAE8E8E8A6
:10153000689500CA689500CA689500CA689500B1A8
:1015400068C8AA7C2B0B18A5637168C8AAFE0001A5
:10155000D004CAFE0001B168C8AA7C2B0B18A56391
:101560007168C8AAFE0001B168C8AA7C2B0B18A537
:10157000637168C8AABD000148B168C8AA7C2B0B7A
:1015800018A5637168C8AABD000148CABD0001481A
:10159000B168C8AA7C2B0B18A5637168C8AABD00E6
:1015A0000148CABD000148CABD000148CABD0001CA
:1015B00048B168C8AA7C2B0B18A5637168C8AA68D3
:1015C0009D0001B168C8AA7C2B0B18A5637168C87F
:1015D000AACA689D0001E8689D0001B168C8AA7C9C
:1015E0002B0B18A5637168C8AACACACA689D0001F6
:1015F000E8689D0001E8689D0001E8689D0001B170
:1016000068C8AA7C2B0BB168C8AA5A20350F7AB1DA
:1016100068C8AA7C2B0BB168C8AA5AA46EA56F2013
:10162000350F856FD004E76C8002676C9004F76C0F
:101630008002776C7AB168C8AA7C2B0B68856B68CE
:10164000856AB26A48B168C8AA7C2B0B68856B684A
:10165000856A5AA000B16A8512C8B16A85137AA555
:101660001248A51348B168C8AA7C2B0BFA68856B91
:1016700068856A8A926AB168C8AA7C2B0B68851251
:1016800068851368856A68856B5AA000A512916AFF
:10169000C8A513916A7AB168C8AA7C2B0BB168C837
:1016A000856AB168C8856B68AA6818656A856A8AA0
:1016B000656B856B18A56A656648A56B656748B15B
:1016C00068C8AA7C2B0BB168C8856AB168C8856BED
:1016D00068AA680A488A2AAA6818656A856A8A65B3
:1016E0006B856B18A56A656648A56B656748B16828
:1016F000C8AA7C2B0BA56348B168C8AA7C2B0BA594
:101700006348BA8663B168C8AAA900E000F00880FF
:1017100002800448CA80F4B168C8AA7C2B0B688593
:1017200063B168C8AA7C2B0BB168C8856A5AA568E2
:1017300048A56948A46AB1608568C8B1608569A098
:1017400000B168C8AA7C2B0B6885696885687AB186
:1017500068C8AA7C2B0B20480EB168C8AA7C2B0B4A
:1017600080034C3C0FA66D9A60A9FE851064112081
:101770003C0EA51A856DA51B856EA90120000EA043
:1017800000B11E916DF008C92ED00160C880F2A989
:101790002E916DC8A942916DC8A949916DC8A94EF5
:1017A000916DC8A900916DA56D851EA56E851F6000
:1017B0005ADAA566C545D00FA565C544D0092036BF
:1017C0000E901564656466641AA90A851BA465B148
:0B17D0001AE665D002E66638FA7A607F
:00000001FF
