:100B00004C470C46696C65206E6F7420666F756E7D
:100B100064004261642042696E617279004F7574AD
:100B2000206F66206D656D6F727900020F0915499F
:100B30000F540F690F450F5E0F730F090F270F3604
:100B40000F800F8C0FA10FA00FA90FC10F0000C9BC
:100B500010DD100A11E90F0710F110A8139113A965
:100B600011C4113A111B11DF1104127E115511939A
:100B700010A6102510B91076103810571000001963
:100B80001327133913531361137413130F1D0FB964
:100B900013CB13E213031415142D14C812EC12DA3C
:100BA00012021300000000AE12BB129E128E127EC3
:100BB000126E12D114F11461145114A814C714FF49
:100BC00014000047125A122B1200008714971400C9
:100BD0000000000000000000000000000000000015
:100BE0000000000000000000000000000000000005
:100BF00000000000000000000000000000000000F5
:100C000000000000000000000000000000000000E4
:100C100000000000000000000000000000000000D4
:100C200000000000000000000000000A3D3D3D20E3
:100C3000535441434B2044554D50203D3D3D0A0007
:100C400042503A20307800646D646E200B0EB00B79
:100C5000A90B851FA903851E4C170E201215A9028A
:100C6000202F0EB00BA90B851FA903851E4C170E54
:100C7000A90220350EB00BA90B851FA903851E4CB8
:100C8000170E203B0E903564656466205915902C34
:100C9000C956D0282059159023C94DD01F20591569
:100CA000901AC942D0162059159011856220591505
:100CB000900A85632059159003856438B00BA90B01
:100CC000851FA912851E20170EA56D056EF00BA5B8
:100CD0006D851AA56E851B20470E6410A5648511CD
:100CE000A563F002E611E611E61118A5116562850B
:100CF0001138A510E9028510A511E90085112041E0
:100D00000EB00BA90B851FA91D851E4C170E646024
:100D10006411A51B8561A9FE851020410EB00BA9A9
:100D20000B851FA91D851E4C170E646BA51B856CBA
:100D3000A200A002205915916BC8205915916BC8CB
:100D4000E8E46290EFA5638569A564856A18A561EA
:100D5000690285686467A569056AF01520591592CE
:100D600067E667D002E668A569D002C66AC66980F0
:100D7000E5A567F002E6686467A9028569A2008AB2
:100D80001A0AA8A5679160B16B8569C8A5689160CA
:100D9000B16B856A20591590169267E667D002E616
:100DA00068A569D002C66AC669A56A0569D0E5E882
:100DB000E462B02F8A0AA8B16B8510C8B16B8511A7
:100DC00038A900E5678512A901E9008513A513C5B7
:100DD00011D004A512C510B0A6A567F002E668649C
:100DE00067809CA902851AA56C851B20470E20DD13
:100DF0000E20FF0EA902851AA561851B4C470EA285
:100E0000366C220060A2376C220060485ADA20FF5C
:100E10000DC902FA7A6860A2116C220060A2126CFD
:100E2000220060A2136C220060A2146C220060A257
:100E3000046C220060A20A6C220060A20B6C2200EB
:100E400060A2006C220060A2016C22006048DA5AA5
:100E5000A92B851EA90C851F20170EA940851EA948
:100E60000C851F20170EA56320230E20290EA663D4
:100E7000E8E8E8E8E8E8E8E8E8E8A015A930DA20DA
:100E80001D0EFAA931DA201D0EFA8ADA20230EFA95
:100E9000A93ADA201D0EFAA920DA201D0EFABD00AB
:100EA00001DA20230EFAE463D023A920DA201D0EF4
:100EB000FAA93CDA201D0EFAA92DDA201D0EFAA996
:100EC00042DA201D0EFAA950DA201D0EFADA202986
:100ED0000EFACA88D0A620290E7AFA686064646483
:100EE000666463646CA5611A85651A8567A002B1A2
:100EF000608568C8B1608569A000606C220060BA36
:100F0000866DB168C8AA7C2B0BA56F48B168C8AACA
:100F10007C2B0B68856FB168C8AA7C2B0B68856E2B
:100F2000B168C8AA7C2B0BA9007F6C02A90148B14B
:100F300068C8AA7C2B0BA9006F6C02A90148B16894
:100F4000C8AA7C2B0BB168C848B168C848B168C84A
:100F5000AA7C2B0BA90048B168C8AA7C2B0BA9005E
:100F60004848B168C8AA7C2B0BA90148B168C8AA37
:100F70007C2B0BA90148A90048B168C8AA7C2B0B9F
:100F8000BABD010148B168C8AA7C2B0BBABD0101EA
:100F9000856ABD020148A56A48B168C8AA7C2B0BC6
:100FA0006868B168C8AA7C2B0BBABD0101856ABD0F
:100FB00002019D0101A56A9D0201B168C8AA7C2BAE
:100FC0000BBABD0201856ABD04019D0201A56A9D9F
:100FD0000401BD0101856ABD03019D0101A56A9D52
:100FE0000301B168C8AA7C2B0BBA18BD04017D02AD
:100FF000019D0401BD03017D01019D0301E8E89A03
:10100000B168C8AA7C2B0BBA38BD0401FD02019D52
:101010000401BD0301FD01019D0301E8E89AB168E7
:10102000C8AA7C2B0BBABD02015D01019D0201E83B
:101030009AB168C8AA7C2B0BB168C8856AF011BA4E
:101040001E02013E0101C66AF00680F4800280F0B3
:10105000B168C8AA7C2B0BB168C8856AF011BA5E6A
:1010600001017E0201C66AF00680F4800280F0B1C0
:1010700068C8AA7C2B0BBABD04015D02019D040166
:10108000BD03015D01019D0301E8E89AB168C8AAAA
:101090007C2B0BBABD02013D01019D0201E89AB112
:1010A00068C8AA7C2B0BBABD02011D01019D02017B
:1010B000E89AB168C8AA7C2B0BBABD010149FF9D13
:1010C0000101B168C8AA7C2B0BBA18BD02017D01D1
:1010D000019D0201E89AB168C8AA7C2B0BBA38BD01
:1010E0000201FD01019D0201E89AB168C8AA7C2BAA
:1010F0000BBA38A900FD02019D0201A900FD010102
:101100009D0101B168C8AA7C2B0BBA38A900FD016A
:10111000019D0101B168C8AA7C2B0BBAA901856A9F
:10112000BD0201DD0101F0049002646AE89AA56A3B
:101130009D0101B168C8AA7C2B0BBA646ABD02018B
:10114000DD0101B002E66AE89AA56A9D0101B16875
:10115000C8AA7C2B0BBAA901856ABD0301DD010178
:10116000D006BD0401DD0201F0049002646AE8E8E3
:10117000E89AA56A9D0101B168C8AA7C2B0BBA64E4
:101180006ABD0301DD0101B004E66A800CD00ABD2E
:101190000401DD0201B002E66AE8E8E89AA56A9D6A
:1011A0000101B168C8AA7C2B0BBA646ABD0201DDDB
:1011B0000101D002E66AE89AA56A9D0101B168C8FA
:1011C000AA7C2B0BBA646ABD0201DD0101F002E6C4
:1011D0006AE89AA56A9D0101B168C8AA7C2B0BBA7E
:1011E000646ABD0301DD0101D00ABD0401DD020115
:1011F000D002E66AE8E8E89AA56A9D0101B168C8EC
:10120000AA7C2B0BBAA901856ABD0301DD0101D0BF
:101210000ABD0401DD0201D002646AE8E8E89AA58B
:101220006A9D0101B168C8AA7C2B0BBABD03018578
:101230006ABD0201856BBD0101A8B16AE8E89A4860
:10124000B168C8AA7C2B0BB168C818656648A56749
:10125000690048B168C8AA7C2B0BB168C8186566DC
:1012600048B168C8656748B168C8AA7C2B0BFAF01A
:10127000053898F168A8C8B168C8AA7C2B0B68F03B
:101280000518987168A8C8B168C8AA7C2B0BFAD059
:10129000053898F168A8C8B168C8AA7C2B0B68D03B
:1012A0000518987168A8C8B168C8AA7C2B0B189853
:1012B0007168A8C8B168C8AA7C2B0B3898F168A8D7
:1012C000C8B168C8AA7C2B0BB168C8846AA8B1648D
:1012D000A46A48B168C8AA7C2B0BB168C8846AA804
:1012E000689164A46AB168C8AA7C2B0BB168C884F1
:1012F0006AA8B16448C8B16448A46AB168C8AA7C45
:101300002B0BB168C8846AA8C86891648868916426
:10131000A46AB168C8AA7C2B0BB168C8AAB50048FA
:10132000B168C8AA7C2B0BB168C8AAB50048E8B55B
:101330000048B168C8AA7C2B0BB168C8AAB50048A0
:10134000E8B50048E8B50048E8B50048B168C8AA63
:101350007C2B0BB168C8AA689500B168C8AA7C2B21
:101360000BB168C8AAE8689500CA689500B168C85A
:10137000AA7C2B0BB168C8AAE8E8E8689500CA689F
:101380009500CA689500CA689500B168C8AA7C2B08
:101390000B18A5637168C8AAFE0001D004CAFE003C
:1013A00001B168C8AA7C2B0B18A5637168C8AAFE96
:1013B0000001B168C8AA7C2B0B18A5637168C8AA84
:1013C000BD000148B168C8AA7C2B0B18A5637168E1
:1013D000C8AABD000148CABD000148B168C8AA7CBE
:1013E0002B0B18A5637168C8AABD000148CABD00CF
:1013F0000148CABD000148CABD000148B168C8AA79
:101400007C2B0B18A5637168C8AA689D0001B168A0
:10141000C8AA7C2B0B18A5637168C8AACA689D006E
:1014200001E8689D0001B168C8AA7C2B0B18A56370
:101430007168C8AACACACA689D0001E8689D00010F
:10144000E8689D0001E8689D0001B168C8AA7C2B8E
:101450000BB168C8AA5A20FB0E7AB168C8AA7C2BC7
:101460000BB168C8AA5AA46EA56F20FB0E856FD079
:1014700004E76C8002676C9004F76C8002776C7AEA
:10148000B168C8AA7C2B0B68856B68856AB26A480C
:10149000B168C8AA7C2B0BFA68856B68856A8A924A
:1014A0006AB168C8AA7C2B0BA56348BA8663B16889
:1014B000C8AAA900E000F0088002800448CA80F4AD
:1014C000B168C8AA7C2B0B688563B168C8AA7C2B5D
:1014D0000BB168C8856A5AA56848A56948A46AB16D
:1014E000608568C8B1608569A000B168C8AA7C2B16
:1014F0000B6885696885687AB168C8AA7C2B0B205F
:101500004D0EB168C8AA7C2B0B80034C020FA66D50
:101510009A60A9FE8510641120410EA51A856DA55B
:101520001B856EA90120050EA000B11E916DF0086B
:10153000C92ED00160C880F2A92E916DC8A9429130
:101540006DC8A949916DC8A94E916DC8A900916D4A
:10155000A56D851EA56E851F605ADAA566C545D0A6
:101560000FA565C544D009203B0E901564656466DF
:10157000641AA90A851BA465B11AE665D002E6665D
:0415800038FA7A605B
:00000001FF
