:100B00004C470C46696C65206E6F7420666F756E7D
:100B100064004261642042696E617279004F7574AD
:100B2000206F66206D656D6F727900060F0D154F91
:100B30000F5A0F6F0F4B0F640F790F0D0F2B0F3BD9
:100B40000F860F920FA70FA60FAF0FC70F0000CF92
:100B500010E3101011EF0F0D10F710AE139713AF35
:100B600011CA1140112111E5110A1284115B11996A
:100B700010AC102B10BF107C103E105D1000001F39
:100B8000132D133F13591367137A13170F210FBF38
:100B900013D113E81309141B143314CE12F212E00C
:100BA00012081300000000B412C112A4129412849F
:100BB000127412D514F51467145714AC14CB140323
:100BC0001500004D126012311200008B149B1400AE
:100BD0000000000000000000000000000000000015
:100BE0000000000000000000000000000000000005
:100BF00000000000000000000000000000000000F5
:100C000000000000000000000000000000000000E4
:100C100000000000000000000000000000000000D4
:100C200000000000000000000000000A3D3D3D20E3
:100C3000535441434B2044554D50203D3D3D0A0007
:100C400042503A20307800646D646E200B0EB00B79
:100C5000A90B851FA903851E4C1B0E201615A90282
:100C600020330EB00BA90B851FA903851E4C1B0E4C
:100C7000A90220390EB00BA90B851FA903851E4CB4
:100C80001B0E203F0E903564656466205D15902C28
:100C9000C956D028205D159023C94DD01F205D1561
:100CA000901AC942D016205D1590118562205D15FD
:100CB000900A8563205D159003856438B00BA90BFD
:100CC000851FA912851E201B0EA56D056EF00BA5B4
:100CD0006D851AA56E851B204B0E6410A5648511C9
:100CE000A563F002E611E611E61118A5116562850B
:100CF0001138A510E9028510A511E90085112045DC
:100D00000EB00BA90B851FA91D851E4C1B0E646020
:100D10006411A51B8561A9FE851020450EB00BA9A5
:100D20000B851FA91D851E4C1B0E646BA51B856CB6
:100D3000A200A002205D15916BC8205D15916BC8C3
:100D4000E8E46290EFA5638569A564856A18A561EA
:100D5000690285686467A569056AF015205D1592CA
:100D600067E667D002E668A569D002C66AC66980F0
:100D7000E5A567F002E6686467A9028569A2008AB2
:100D80001A0AA8A5679160B16B8569C8A5689160CA
:100D9000B16B856A205D1590169267E667D002E612
:100DA00068A569D002C66AC669A56A0569D0E5E882
:100DB000E462B02F8A0AA8B16B8510C8B16B8511A7
:100DC00038A900E5678512A901E9008513A513C5B7
:100DD00011D004A512C510B0A6A567F002E668649C
:100DE00067809CA902851AA56C851B204B0E20E10B
:100DF0000E20030FA902851AA561851B4C4B0EA27C
:100E0000366C220060A2376C2200604898488A48FD
:100E100020FF0DC90268AA68A86860A2116C2200B0
:100E200060A2126C220060A2136C220060A2146CFB
:100E3000220060A2046C220060A20A6C220060A260
:100E40000B6C220060A2006C220060A2016C2200E8
:100E50006048DA5AA92B851EA90C851F201B0EA9F4
:100E600040851EA90C851F201B0EA56320270E2080
:100E70002D0EA663E8E8E8E8E8E8E8E8E8E8A01569
:100E8000A930DA20210EFAA931DA20210EFA8ADA05
:100E900020270EFAA93ADA20210EFAA920DA202119
:100EA0000EFABD0001DA20270EFAE463D023A92050
:100EB000DA20210EFAA93CDA20210EFAA92DDA2037
:100EC000210EFAA942DA20210EFAA950DA20210EC9
:100ED000FADA202D0EFACA88D0A6202D0E7AFA68EA
:100EE00060646464666463646CA5611A85651A85D0
:100EF00067A002B1608568C8B1608569A000606CB8
:100F0000220060BA866DB168C8AA7C2B0BA56F4819
:100F1000B168C8AA7C2B0B68856FB168C8AA7C2B06
:100F20000B68856EB168C8AA7C2B0BA900246C10D5
:100F300002A90148B168C8AA7C2B0BA900246C50F7
:100F400002A90148B168C8AA7C2B0BB168C848B196
:100F500068C848B168C8AA7C2B0BA90048B168C80A
:100F6000AA7C2B0BA9004848B168C8AA7C2B0BA906
:100F70000148B168C8AA7C2B0BA90148A90048B157
:100F800068C8AA7C2B0BBABD010148B168C8AA7C0D
:100F90002B0BBABD0101856ABD020148A56A48B1A3
:100FA00068C8AA7C2B0B6868B168C8AA7C2B0BBAEE
:100FB000BD0101856ABD02019D0101A56A9D020175
:100FC000B168C8AA7C2B0BBABD0201856ABD0401B9
:100FD0009D0201A56A9D0401BD0101856ABD030151
:100FE0009D0101A56A9D0301B168C8AA7C2B0BBABB
:100FF00018BD04017D02019D0401BD03017D0101B5
:101000009D0301E8E89AB168C8AA7C2B0BBA38BDE9
:101010000401FD02019D0401BD0301FD01019D03C9
:1010200001E8E89AB168C8AA7C2B0BBABD02015D41
:1010300001019D0201E89AB168C8AA7C2B0BB16836
:10104000C8856AF011BA1E02013E0101C66AF006A7
:1010500080F4800280F0B168C8AA7C2B0BB168C80C
:10106000856AF011BA5E01017E0201C66AF006804F
:10107000F4800280F0B168C8AA7C2B0BBABD0401D1
:101080005D02019D0401BD03015D01019D0301E8B5
:10109000E89AB168C8AA7C2B0BBABD02013D0101D8
:1010A0009D0201E89AB168C8AA7C2B0BBABD020167
:1010B0001D01019D0201E89AB168C8AA7C2B0BBAF8
:1010C000BD010149FF9D0101B168C8AA7C2B0BBA83
:1010D00018BD02017D01019D0201E89AB168C8AA0C
:1010E0007C2B0BBA38BD0201FD01019D0201E89A7B
:1010F000B168C8AA7C2B0BBA38A900FD02019D0279
:1011000001A900FD01019D0101B168C8AA7C2B0B5A
:10111000BA38A900FD01019D0101B168C8AA7C2B64
:101120000BBAA901856ABD0201DD0101F00490023C
:10113000646AE89AA56A9D0101B168C8AA7C2B0B74
:10114000BA646ABD0201DD0101B002E66AE89AA54F
:101150006A9D0101B168C8AA7C2B0BBAA901856AF6
:10116000BD0301DD0101D006BD0401DD0201F00473
:101170009002646AE8E8E89AA56A9D0101B168C82E
:10118000AA7C2B0BBA646ABD0301DD0101B004E641
:101190006A800CD00ABD0401DD0201B002E66AE8F3
:1011A000E8E89AA56A9D0101B168C8AA7C2B0BBA30
:1011B000646ABD0201DD0101D002E66AE89AA56A0F
:1011C0009D0101B168C8AA7C2B0BBA646ABD0201FB
:1011D000DD0101F002E66AE89AA56A9D0101B168A5
:1011E000C8AA7C2B0BBA646ABD0301DD0101D00AD9
:1011F000BD0401DD0201D002E66AE8E8E89AA56ACA
:101200009D0101B168C8AA7C2B0BBAA901856ABDF2
:101210000301DD0101D00ABD0401DD0201D0026439
:101220006AE8E8E89AA56A9D0101B168C8AA7C2B22
:101230000BBABD0301856ABD0201856BBD0101A822
:10124000B16AE8E89A48B168C8AA7C2B0BB168C8B3
:1012500018656648A567690048B168C8AA7C2B0B69
:10126000B168C818656648B168C8656748B168C89C
:10127000AA7C2B0BFAF0053898F168A8C8B168C8A9
:10128000AA7C2B0B68F00518987168A8C8B168C8CB
:10129000AA7C2B0BFAD0053898F168A8C8B168C8A9
:1012A000AA7C2B0B68D00518987168A8C8B168C8CB
:1012B000AA7C2B0B18987168A8C8B168C8AA7C2BA7
:1012C0000B3898F168A8C8B168C8AA7C2B0BB16824
:1012D000C8846AA8B164A46A48B168C8AA7C2B0B08
:1012E000B168C8846AA8689164A46AB168C8AA7C15
:1012F0002B0BB168C8846AA8B16448C8B16448A41B
:101300006AB168C8AA7C2B0BB168C8846AA8C8688F
:10131000916488689164A46AB168C8AA7C2B0BB1F7
:1013200068C8AAB50048B168C8AA7C2B0BB168C8C8
:10133000AAB50048E8B50048B168C8AA7C2B0BB133
:1013400068C8AAB50048E8B50048E8B50048E8B55F
:101350000048B168C8AA7C2B0BB168C8AA68950080
:10136000B168C8AA7C2B0BB168C8AAE8689500CA06
:10137000689500B168C8AA7C2B0BB168C8AAE8E8D8
:10138000E8689500CA689500CA689500CA68950023
:10139000B168C8AA7C2B0B18A5637168C8AAFE00A7
:1013A00001D004CAFE0001B168C8AA7C2B0B18A5A5
:1013B000637168C8AAFE0001B168C8AA7C2B0B182B
:1013C000A5637168C8AABD000148B168C8AA7C2B92
:1013D0000B18A5637168C8AABD000148CABD000109
:1013E00048B168C8AA7C2B0B18A5637168C8AABD50
:1013F000000148CABD000148CABD000148CABD007D
:101400000148B168C8AA7C2B0B18A5637168C8AAEB
:10141000689D0001B168C8AA7C2B0B18A563716890
:10142000C8AACA689D0001E8689D0001B168C8AA01
:101430007C2B0B18A5637168C8AACACACA689D002C
:1014400001E8689D0001E8689D0001E8689D0001D1
:10145000B168C8AA7C2B0BB168C8AA5A20FF0E7AC3
:10146000B168C8AA7C2B0BB168C8AA5AA46EA56F34
:1014700020FF0E856FD004A9408002A900900209C8
:1014800080856C7AB168C8AA7C2B0B68856B6885EF
:101490006AB26A48B168C8AA7C2B0BFA68856B6887
:1014A000856A8A926AB168C8AA7C2B0BA56348BA80
:1014B0008663B168C8AAA900E000F0088002800431
:1014C00048CA80F4B168C8AA7C2B0B688563B168F0
:1014D000C8AA7C2B0BB168C8856A5AA56848A5695B
:1014E00048A46AB1608568C8B1608569A000B16828
:1014F000C8AA7C2B0B6885696885687AB168C8AA18
:101500007C2B0B20510EB168C8AA7C2B0B80034C9E
:10151000060FA66D9A60A9FE8510641120450EA5E0
:101520001A856DA51B856EA90120050EA000B11EB0
:10153000916DF008C92ED00160C880F2A92E916D7E
:10154000C8A942916DC8A949916DC8A94E916DC8AD
:10155000A900916DA56D851EA56E851F605ADAA53F
:1015600066C545D00FA565C544D009203F0E90152E
:1015700064656466641AA90A851BA465B11AE665E8
:08158000D002E66638FA7A6039
:00000001FF
