:100B00004C470C46696C65206E6F7420666F756E7D
:100B100064004261642042696E617279004F7574AD
:100B2000206F66206D656D6F7279001A0F21156355
:100B30000F6E0F830F5F0F780F8D0F210F3F0F4F39
:100B40000F9A0FA60FBB0FBA0FC30FDB0F0000E306
:100B500010F7102411031021100B11C213AB13C393
:100B600011DE1154113511F9111E1298116F11ADCA
:100B700010C0103F10D310901052107110000033AD
:100B800013411353136D137B138E132B0F350FD398
:100B900013E513FC131D142F144714E2120613F46B
:100BA000121C1300000000C812D512B812A8129827
:100BB000128812E91409157B146B14C014DF141782
:100BC00015000061127412451200009F14AF14004A
:100BD0000000000000000000000000000000000015
:100BE0000000000000000000000000000000000005
:100BF00000000000000000000000000000000000F5
:100C000000000000000000000000000000000000E4
:100C100000000000000000000000000000000000D4
:100C200000000000000000000000000A3D3D3D20E3
:100C3000535441434B2044554D50203D3D3D0A0007
:100C400042503A20307800200F0EB00BA90B851FC0
:100C5000A903851E4C290E202A15A90220410EB099
:100C60000BA90B851FA903851E4C290EA90220473D
:100C70000EB00BA90B851FA903851E4C290E204D14
:100C80000E9037A90085658566206015902CC956A1
:100C9000D0282060159023C94DD01F206015901AD0
:100CA000C942D01620601590118562206015900A07
:100CB00085632060159003856438B00BA90B851FF0
:100CC000A912851E20290E6410A5648511A563F064
:100CD00002E611E611E61118A5116562851138A525
:100CE00010E9028510A511E900851120530EB00B03
:100CF000A90B851FA91D851E4C290EA9008560859D
:100D000011A51B8561A9FE851020530EB00BA90B00
:100D1000851FA91D851E4C290E646BA51B856CA221
:100D200000A002206015916BC8206015916BC8E887
:100D3000E46290EFA5638569A564856A18A5616979
:100D40000285686467A569056AF017206015A00030
:100D50009167E667D002E668A569D002C66AC669EF
:100D600080E3A567F002E6686467A9028569A200CE
:100D70008A1869010AA8A9009160B16B8569C8A5A4
:100D8000689160B16B856A2060159018A00091672A
:100D9000E667D002E668A569D002C66AC669A56A98
:100DA0000569D0E3A567F002E6686467E8E462904D
:100DB000BFA902851AA56C851B20590E20EF0E20B5
:100DC000170FA902851AA561851B4C590EA000B901
:100DD0000007F007C8C040D0F61860C8C040D00275
:100DE0001860B90007D002186098186900851EA91C
:100DF000076900851FA200860DB90007F00CC92EF7
:100E0000D002E60DE8C8C040D0EF8AA60D38604891
:100E100098488A48A51E48A51F4820CD0D68851F03
:100E200068851E68AA68A86860A2116C220060A28A
:100E3000126C220060A2136C220060A2146C2200CB
:100E400060A2046C220060A20A6C220060A20B6CFB
:100E5000220060A2006C220060A2016C22006048A7
:100E6000DA5AA92B851EA90C851F20290EA94085B9
:100E70001EA90C851F20290EA56320350E203B0ED0
:100E8000A663E8E8E8E8E8E8E8E8E8E8A015A930BB
:100E9000DA202F0EFAA931DA202F0EFA8ADA20355D
:100EA0000EFAA93ADA202F0EFAA920DA202F0EFA2C
:100EB000BD0001DA20350EFAE463D023A920DA2040
:100EC0002F0EFAA93CDA202F0EFAA92DDA202F0EC8
:100ED000FAA942DA202F0EFAA950DA202F0EFADAF8
:100EE000203B0EFACA88D0A6203B0E7AFA6860A989
:100EF00000856485668563856CA5611869018565D3
:100F00001869018567A002B1608568C8B16085690C
:100F1000A000606C220060BA866DB168C8AA7C2B04
:100F20000BA56F48B168C8AA7C2B0B68856FB168A8
:100F3000C8AA7C2B0B68856EB168C8AA7C2B0BA94C
:100F400000246C1002A90148B168C8AA7C2B0BA927
:100F500000246C5002A90148B168C8AA7C2B0BB1CF
:100F600068C848B168C848B168C8AA7C2B0BA900FA
:100F700048B168C8AA7C2B0BA9004848B168C8AA28
:100F80007C2B0BA90148B168C8AA7C2B0BA901488E
:100F9000A90048B168C8AA7C2B0BBABD010148B1B1
:100FA00068C8AA7C2B0BBABD0101856ABD02014845
:100FB000A56A48B168C8AA7C2B0B6868B168C8AA42
:100FC0007C2B0BBABD0101856ABD02019D0101A503
:100FD0006A9D0201B168C8AA7C2B0BBABD020185CB
:100FE0006ABD04019D0201A56A9D0401BD01018540
:100FF0006ABD03019D0101A56A9D0301B168C8AAEC
:101000007C2B0BBA18BD04017D02019D0401BD03B8
:10101000017D01019D0301E8E89AB168C8AA7C2B13
:101020000BBA38BD0401FD02019D0401BD0301FDA1
:1010300001019D0301E8E89AB168C8AA7C2B0BBAAC
:10104000BD02015D01019D0201E89AB168C8AA7C58
:101050002B0BB168C8856AF011BA1E02013E01016E
:10106000C66AF00680F4800280F0B168C8AA7C2BC2
:101070000BB168C8856AF011BA5E01017E0201C633
:101080006AF00680F4800280F0B168C8AA7C2B0B5D
:10109000BABD04015D02019D0401BD03015D0101B2
:1010A0009D0301E8E89AB168C8AA7C2B0BBABD027F
:1010B000013D01019D0201E89AB168C8AA7C2B0B91
:1010C000BABD02011D01019D0201E89AB168C8AADA
:1010D0007C2B0BBABD010149FF9D0101B168C8AA73
:1010E0007C2B0BBA18BD02017D01019D0201E89A1B
:1010F000B168C8AA7C2B0BBA38BD0201FD01019D65
:101100000201E89AB168C8AA7C2B0BBA38A900FD85
:1011100002019D0201A900FD01019D0101B168C804
:10112000AA7C2B0BBA38A900FD01019D0101B16811
:10113000C8AA7C2B0BBAA901856ABD0201DD010199
:10114000F0049002646AE89AA56A9D0101B168C83A
:10115000AA7C2B0BBA646ABD0201DD0101B002E674
:101160006AE89AA56A9D0101B168C8AA7C2B0BBAEE
:10117000A901856ABD0301DD0101D006BD0401DDC1
:101180000201F0049002646AE8E8E89AA56A9D0109
:1011900001B168C8AA7C2B0BBA646ABD0301DD01EA
:1011A00001B004E66A800CD00ABD0401DD0201B082
:1011B00002E66AE8E8E89AA56A9D0101B168C8AA52
:1011C0007C2B0BBA646ABD0201DD0101D002E66A24
:1011D000E89AA56A9D0101B168C8AA7C2B0BBA6484
:1011E0006ABD0201DD0101F002E66AE89AA56A9D86
:1011F0000101B168C8AA7C2B0BBA646ABD0301DD8A
:101200000101D00ABD0401DD0201D002E66AE8E86E
:10121000E89AA56A9D0101B168C8AA7C2B0BBAA9FE
:1012200001856ABD0301DD0101D00ABD0401DD02B3
:1012300001D002646AE8E8E89AA56A9D0101B168F4
:10124000C8AA7C2B0BBABD0301856ABD0201856B60
:10125000BD0101A8B16AE8E89A48B168C8AA7C2B28
:101260000BB168C818656648A567690048B168C8C9
:10127000AA7C2B0BB168C818656648B168C8656759
:1012800048B168C8AA7C2B0BFAF0053898F168A819
:10129000C8B168C8AA7C2B0B68F00518987168A8BB
:1012A000C8B168C8AA7C2B0BFAD0053898F168A899
:1012B000C8B168C8AA7C2B0B68D00518987168A8BB
:1012C000C8B168C8AA7C2B0B18987168A8C8B16807
:1012D000C8AA7C2B0B3898F168A8C8B168C8AA7C4A
:1012E0002B0BB168C8846AA8B164A46A48B168C805
:1012F000AA7C2B0BB168C8846AA8689164A46AB1FF
:1013000068C8AA7C2B0BB168C8846AA8B16448C8B5
:10131000B16448A46AB168C8AA7C2B0BB168C884C0
:101320006AA8C868916488689164A46AB168C8AA08
:101330007C2B0BB168C8AAB50048B168C8AA7C2B41
:101340000BB168C8AAB50048E8B50048B168C8AA9A
:101350007C2B0BB168C8AAB50048E8B50048E8B5D1
:101360000048E8B50048B168C8AA7C2B0BB168C832
:10137000AA689500B168C8AA7C2B0BB168C8AAE816
:10138000689500CA689500B168C8AA7C2B0BB16843
:10139000C8AAE8E8E8689500CA689500CA68950098
:1013A000CA689500B168C8AA7C2B0B18A563716840
:1013B000C8AAFE0001D004CAFE0001B168C8AA7C18
:1013C0002B0B18A5637168C8AAFE0001B168C8AAF2
:1013D0007C2B0B18A5637168C8AABD000148B168D1
:1013E000C8AA7C2B0B18A5637168C8AABD00014868
:1013F000CABD000148B168C8AA7C2B0B18A563714F
:1014000068C8AABD000148CABD000148CABD0001A4
:1014100048CABD000148B168C8AA7C2B0B18A56357
:101420007168C8AA689D0001B168C8AA7C2B0B1816
:10143000A5637168C8AACA689D0001E8689D00019B
:10144000B168C8AA7C2B0B18A5637168C8AACACA60
:10145000CA689D0001E8689D0001E8689D0001E8F8
:10146000689D0001B168C8AA7C2B0BB168C8AA5A54
:1014700020130F7AB168C8AA7C2B0BB168C8AA5A8E
:10148000A46EA56F20130F856FD004A9408002A918
:101490000090020980856C7AB168C8AA7C2B0B6821
:1014A000856B68856AB26A48B168C8AA7C2B0BFA5A
:1014B00068856B68856A8A926AB168C8AA7C2B0BBA
:1014C000A56348BA8663B168C8AAA900E000F0081D
:1014D0008002800448CA80F4B168C8AA7C2B0B68DB
:1014E0008563B168C8AA7C2B0BB168C8856A5AA508
:1014F0006848A56948A46AB1608568C8B160856913
:10150000A000B168C8AA7C2B0B6885696885687AD9
:10151000B168C8AA7C2B0B205F0EB168C8AA7C2BCF
:101520000B80034C1A0FA66D9A6098488A4820CD0C
:101530000DE000D022A000B11EF003C880F9A92E52
:10154000911EC8A942911EC8A949911EC8A94E91D1
:101550001EC8A900911E98850D68AA68A8A50D60EF
:1015600098488A48A566C545D011A565C544D00BE5
:10157000204D0E9017A90085658566641AA90A8515
:101580001BA465B11AE665D002E66638850D68AA27
:0515900068A8A50D6034
:00000001FF
