:100B00004C400C46696C65206E6F7420666F756E84
:100B100064004261642042696E617279004F7574AD
:100B2000206F66206D656D6F727900400F471589E3
:100B30000F940FA90F850F9E0FB30F470F650F7509
:100B40000FC00FCC0FE10FE00FE90F0110000009FB
:100B5000111D114A11291047103111E813D113E961
:100B60001104127A115B111F124412BE119511D398
:100B700010E6106510F910B61078109710000059A3
:100B800013671379139313A113B413510F5B0FF968
:100B9000130B142214431455146D1408132C131A38
:100BA00013421300000000EE12FB12DE12CE12BE42
:100BB00012AE120F152F15A1149114E61405153D50
:100BC00015000087129A126B120000C514D514008C
:100BD0000000000000000000000000000000000015
:100BE0000000000000000000000000000000000005
:100BF00000000000000000000000000000000000F5
:100C000000000000000000000000000000000000E4
:100C100000000000000000000000000000000000D4
:100C200000000000000000000000000A3D3D3D20E3
:100C3000535441434B2044554D50203D3D3D0A0007
:100C4000646D646E20060EB00BA90B851FA9038589
:100C50001E4C160E205015A902202E0EB00BA90B0B
:100C6000851FA903851E4C160EA90220340EB00B59
:100C7000A90B851FA903851E4C160E203A0E903530
:100C800064656466209715902CC956D02820971566
:100C90009023C94DD01F209715901AC942D0162015
:100CA000971590118562209715900A8563209715F6
:100CB0009003856438B00BA90B851FA912851E20EF
:100CC000160EA56D056EF00BA56D851AA56E851B1C
:100CD00020460E6410A5648511A563F002E611E6B6
:100CE00011E61118A5116562851138A510E9028574
:100CF00010A511E900851120400EB00BA90B851F2E
:100D0000A91D851E4C160E64606411A51B8561A982
:100D1000FE851020400EB00BA90B851FA91D851E56
:100D20004C160E646BA51B856CA200A002209715C3
:100D3000916BC8209715916BC8E8E46290EFA563AA
:100D40008569A564856A18A561690285686467A5D7
:100D500069056AF0152097159267E667D002E66884
:100D6000A569D002C66AC66980E5A567F002E66893
:100D70006467A9028569A2008A1A0AA8A56791601A
:100D8000B16B8569C8A5689160B16B856A209715BC
:100D900090169267E667D002E668A569D002C66A37
:100DA000C669A56A0569D0E5E8E462B02F8A0AA899
:100DB000B16B8510C8B16B851138A900E567851244
:100DC000A901E9008513A513C511D004A512C5100A
:100DD000B0A6A567F002E6686467809CA902851A40
:100DE000A56C851B20460EA56148201B0F203D0FDA
:100DF000A902851A68851B4C460EA2366C2200603B
:100E0000A2376C2200604898488A4820FA0DC9022F
:100E100068AA68A86860A2116C220060A2126C2205
:100E20000060A2136C220060A2146C220060A20475
:100E30006C220060A20A6C220060A20B6C2200608F
:100E4000A2006C220060A2016C22006048DA5ABA4B
:100E50008A186905856AA92B851EA90C851F20168D
:100E60000EA663E8E8E8E8E8E8E8E8E8E8A015A9FD
:100E700030DA201C0EFAA931DA201C0EFA8ADA20A8
:100E8000220EFAA93ADA201C0EFAA920DA201C0E4A
:100E9000FAE46AD044A920DA201C0E201C0E201C83
:100EA0000EFAA93CDA201C0EFAA92DDA201C0EFA43
:100EB000A953DA201C0EFAA950DA201C0EFAE463BA
:100EC000D052A92FDA201C0EFAA942DA201C0EFA01
:100ED000A950DA201C0EFA803BBD0001DA20220E58
:100EE000FAE463D023A920DA201C0EFAA93CDA2008
:100EF0001C0EFAA92DDA201C0EFAA942DA201C0ECB
:100F0000FAA950DA201C0EFADA20280EFACA88F064
:100F1000034C6F0E20280E7AFA686064646466647D
:100F200063646CA5611A85651A8567A002B1608546
:100F300068C8B1608569A000606C220060BA866DE7
:100F4000B168C8AA7C2B0BA56F48B168C8AA7C2BD6
:100F50000B68856FB168C8AA7C2B0B68856EB16879
:100F6000C8AA7C2B0BA900246C1002A90148B16807
:100F7000C8AA7C2B0BA900246C5002A90148B168B7
:100F8000C8AA7C2B0BB168C848B168C848B168C80A
:100F9000AA7C2B0BA90048B168C8AA7C2B0BA9001E
:100FA0004848B168C8AA7C2B0BA90148B168C8AAF7
:100FB0007C2B0BA90148A90048B168C8AA7C2B0B5F
:100FC000BABD010148B168C8AA7C2B0BBABD0101AA
:100FD000856ABD020148A56A48B168C8AA7C2B0B86
:100FE0006868B168C8AA7C2B0BBABD0101856ABDCF
:100FF00002019D0101A56A9D0201B168C8AA7C2B6E
:101000000BBABD0201856ABD04019D0201A56A9D5E
:101010000401BD0101856ABD03019D0101A56A9D11
:101020000301B168C8AA7C2B0BBA18BD04017D026C
:10103000019D0401BD03017D01019D0301E8E89AC2
:10104000B168C8AA7C2B0BBA38BD0401FD02019D12
:101050000401BD0301FD01019D0301E8E89AB168A7
:10106000C8AA7C2B0BBABD02015D01019D0201E8FB
:101070009AB168C8AA7C2B0BB168C8856AF011BA0E
:101080001E02013E0101C66AF00680F4800280F073
:10109000B168C8AA7C2B0BB168C8856AF011BA5E2A
:1010A00001017E0201C66AF00680F4800280F0B180
:1010B00068C8AA7C2B0BBABD04015D02019D040126
:1010C000BD03015D01019D0301E8E89AB168C8AA6A
:1010D0007C2B0BBABD02013D01019D0201E89AB1D2
:1010E00068C8AA7C2B0BBABD02011D01019D02013B
:1010F000E89AB168C8AA7C2B0BBABD010149FF9DD3
:101100000101B168C8AA7C2B0BBA18BD02017D0190
:10111000019D0201E89AB168C8AA7C2B0BBA38BDC0
:101120000201FD01019D0201E89AB168C8AA7C2B69
:101130000BBA38A900FD02019D0201A900FD0101C1
:101140009D0101B168C8AA7C2B0BBA38A900FD012A
:10115000019D0101B168C8AA7C2B0BBAA901856A5F
:10116000BD0201DD0101F0049002646AE89AA56AFB
:101170009D0101B168C8AA7C2B0BBA646ABD02014B
:10118000DD0101B002E66AE89AA56A9D0101B16835
:10119000C8AA7C2B0BBAA901856ABD0301DD010138
:1011A000D006BD0401DD0201F0049002646AE8E8A3
:1011B000E89AA56A9D0101B168C8AA7C2B0BBA64A4
:1011C0006ABD0301DD0101B004E66A800CD00ABDEE
:1011D0000401DD0201B002E66AE8E8E89AA56A9D2A
:1011E0000101B168C8AA7C2B0BBA646ABD0201DD9B
:1011F0000101D002E66AE89AA56A9D0101B168C8BA
:10120000AA7C2B0BBA646ABD0201DD0101F002E683
:101210006AE89AA56A9D0101B168C8AA7C2B0BBA3D
:10122000646ABD0301DD0101D00ABD0401DD0201D4
:10123000D002E66AE8E8E89AA56A9D0101B168C8AB
:10124000AA7C2B0BBAA901856ABD0301DD0101D07F
:101250000ABD0401DD0201D002646AE8E8E89AA54B
:101260006A9D0101B168C8AA7C2B0BBABD03018538
:101270006ABD0201856BBD0101A8B16AE8E89A4820
:10128000B168C8AA7C2B0BB168C818656648A56709
:10129000690048B168C8AA7C2B0BB168C81865669C
:1012A00048B168C8656748B168C8AA7C2B0BFAF0DA
:1012B000053898F168A8C8B168C8AA7C2B0B68F0FB
:1012C0000518987168A8C8B168C8AA7C2B0BFAD019
:1012D000053898F168A8C8B168C8AA7C2B0B68D0FB
:1012E0000518987168A8C8B168C8AA7C2B0B189813
:1012F0007168A8C8B168C8AA7C2B0B3898F168A897
:10130000C8B168C8AA7C2B0BB168C8846AA8B1644C
:10131000A46A48B168C8AA7C2B0BB168C8846AA8C3
:10132000689164A46AB168C8AA7C2B0BB168C884B0
:101330006AA8B16448C8B16448A46AB168C8AA7C04
:101340002B0BB168C8846AA8C868916488689164E6
:10135000A46AB168C8AA7C2B0BB168C8AAB50048BA
:10136000B168C8AA7C2B0BB168C8AAB50048E8B51B
:101370000048B168C8AA7C2B0BB168C8AAB5004860
:10138000E8B50048E8B50048E8B50048B168C8AA23
:101390007C2B0BB168C8AA689500B168C8AA7C2BE1
:1013A0000BB168C8AAE8689500CA689500B168C81A
:1013B000AA7C2B0BB168C8AAE8E8E8689500CA685F
:1013C0009500CA689500CA689500B168C8AA7C2BC8
:1013D0000B18A5637168C8AAFE0001D004CAFE00FC
:1013E00001B168C8AA7C2B0B18A5637168C8AAFE56
:1013F0000001B168C8AA7C2B0B18A5637168C8AA44
:10140000BD000148B168C8AA7C2B0B18A5637168A0
:10141000C8AABD000148CABD000148B168C8AA7C7D
:101420002B0B18A5637168C8AABD000148CABD008E
:101430000148CABD000148CABD000148B168C8AA38
:101440007C2B0B18A5637168C8AA689D0001B16860
:10145000C8AA7C2B0B18A5637168C8AACA689D002E
:1014600001E8689D0001B168C8AA7C2B0B18A56330
:101470007168C8AACACACA689D0001E8689D0001CF
:10148000E8689D0001E8689D0001B168C8AA7C2B4E
:101490000BB168C8AA5A20390F7AB168C8AA7C2B48
:1014A0000BB168C8AA5AA46EA56F20390F856FD0FA
:1014B00004A9408002A90090020980856C7AB16875
:1014C000C8AA7C2B0B68856B68856AB26A48B168CC
:1014D000C8AA7C2B0BFA68856B68856A8A926AB108
:1014E00068C8AA7C2B0BA56348BA8663B168C8AAF2
:1014F000A900E000F0088002800448CA80F4B168C6
:10150000C8AA7C2B0B688563B168C8AA7C2B0BB179
:1015100068C8856A5AA56848A56948A46AB1608503
:1015200068C8B1608569A000B168C8AA7C2B0B6847
:1015300085696885687AB168C8AA7C2B0B204C0E37
:10154000B168C8AA7C2B0B80034C400FA66D9A6033
:10155000A9FE8510641120400EA51A856DA51B8576
:101560006EA90120000EA000B11E916DF008C92ED9
:10157000D00160C880F2A92E916DC8A942916DC8B2
:10158000A949916DC8A94E916DC8A900916DA56D2D
:10159000851EA56E851F605ADAA566C545D00FA5C4
:1015A00065C544D009203A0E901564656466641AD6
:1015B000A90A851BA465B11AE665D002E66638FA69
:0215C0007A604F
:00000001FF
