:100B00004C400C46696C65206E6F7420666F756E84
:100B100064004261642042696E617279004F7574AD
:100B2000206F66206D656D6F7279003E0F451587E9
:100B30000F920FA70F830F9C0FB10F450F630F7319
:100B40000FBE0FCA0FDF0FDE0FE70FFF0F0000070A
:100B5000111B114811271045102F11E613CF13E771
:100B6000110212781159111D124212BC119311D1A8
:100B700010E4106310F710B41076109510000057B1
:100B8000136513771391139F13B2134F0F590FF778
:100B90001309142014411453146B1406132A131848
:100BA00013401300000000EC12F912DC12CC12BC4E
:100BB00012AC120D152D159F148F14E41403153B60
:100BC0001500008512981269120000C314D3140096
:100BD0000000000000000000000000000000000015
:100BE0000000000000000000000000000000000005
:100BF00000000000000000000000000000000000F5
:100C000000000000000000000000000000000000E4
:100C100000000000000000000000000000000000D4
:100C200000000000000000000000000A3D3D3D20E3
:100C3000535441434B2044554D50203D3D3D0A0007
:100C4000647D647E20040EB00BA90B851FA903856B
:100C50001E4C140E204E15A902202C0EB00BA90B11
:100C6000851FA903851E4C140EA90220320EB00B5D
:100C7000A90B851FA903851E4C140E20380E903534
:100C800064756476209515902CC956D0282095154A
:100C90009023C94DD01F209515901AC942D0162017
:100CA000951590118572209515900A8573209515DC
:100CB0009003857438B00BA90B851FA912851E20DF
:100CC000140EA57D057EF00BA57D851AA57E851BDE
:100CD00020440E6410A5748511A573F002E611E698
:100CE00011E61118A5116572851138A510E9028564
:100CF00010A511E9008511203E0EB00BA90B851F30
:100D0000A91D851E4C140E64706411A51B8571A964
:100D1000FE8510203E0EB00BA90B851FA91D851E58
:100D20004C140E647BA51B857CA200A002209515A7
:100D3000917BC8209515917BC8E8E47290EFA5736C
:100D40008579A574857A18A571690285786477A577
:100D500079057AF0152095159277E677D002E67836
:100D6000A579D002C67AC67980E5A577F002E67843
:100D70006477A9028579A2008A1A0AA8A5779170DA
:100D8000B17B8579C8A5789170B17B857A2095155E
:100D900090169277E677D002E678A579D002C67AE7
:100DA000C679A57A0579D0E5E8E472B02F8A0AA859
:100DB000B17B8510C8B17B851138A900E577851214
:100DC000A901E9008513A513C511D004A512C5100A
:100DD000B0A6A577F002E6786477809CA902851A10
:100DE000A57C851B20440E20190F203B0FA90285EE
:100DF0001AA571851B4C440EA2366C220060A237E6
:100E00006C2200604898488A4820F80DC90268AAF8
:100E100068A86860A2116C220060A2126C220060B7
:100E2000A2136C220060A2146C220060A2046C2247
:100E30000060A20A6C220060A20B6C220060A2007B
:100E40006C220060A2016C22006048DA5ABA8A184B
:100E50006905856AA92B851EA90C851F20140EA67D
:100E600063E8E8E8E8E8E8E8E8E8E8A015A930DAA7
:100E7000201A0EFAA931DA201A0EFA8ADA20200E88
:100E8000FAA93ADA201A0EFAA920DA201A0EFAE4A0
:100E90006AD044A920DA201A0E201A0E201A0EFA5F
:100EA000A93CDA201A0EFAA92DDA201A0EFAA95353
:100EB000DA201A0EFAA950DA201A0EFAE463D05298
:100EC000A92FDA201A0EFAA942DA201A0EFAA9502E
:100ED000DA201A0EFA803BBD0001DA20200EFAE477
:100EE00063D023A920DA201A0EFAA93CDA201A0EC0
:100EF000FAA92DDA201A0EFAA942DA201A0EFAA956
:100F000050DA201A0EFADA20260EFACA88F0034CBC
:100F10006D0E20260E7AFA68606464646664636409
:100F20006CA5611A85651A8567A002B1608568C8DD
:100F3000B1608569A000606C220060BA866DB168FE
:100F4000C8AA7C2B0BA56F48B168C8AA7C2B0B687C
:100F5000856FB168C8AA7C2B0B68856EB168C8AA7A
:100F60007C2B0BA900246C1002A90148B168C8AA07
:100F70007C2B0BA900246C5002A90148B168C8AAB7
:100F80007C2B0BB168C848B168C848B168C8AA7C56
:100F90002B0BA90048B168C8AA7C2B0BA9004848B4
:100FA000B168C8AA7C2B0BA90148B168C8AA7C2BE0
:100FB0000BA90148A90048B168C8AA7C2B0BBABD8F
:100FC000010148B168C8AA7C2B0BBABD0101856A32
:100FD000BD020148A56A48B168C8AA7C2B0B6868A5
:100FE000B168C8AA7C2B0BBABD0101856ABD02019C
:100FF0009D0101A56A9D0201B168C8AA7C2B0BBAAC
:10100000BD0201856ABD04019D0201A56A9D04011E
:10101000BD0101856ABD03019D0101A56A9D030112
:10102000B168C8AA7C2B0BBA18BD04017D02019DD2
:101030000401BD03017D01019D0301E8E89AB16847
:10104000C8AA7C2B0BBA38BD0401FD02019D040126
:10105000BD0301FD01019D0301E8E89AB168C8AA3A
:101060007C2B0BBABD02015D01019D0201E89AB122
:1010700068C8AA7C2B0BB168C8856AF011BA1E0239
:10108000013E0101C66AF00680F4800280F0B1687A
:10109000C8AA7C2B0BB168C8856AF011BA5E010141
:1010A0007E0201C66AF00680F4800280F0B168C852
:1010B000AA7C2B0BBABD04015D02019D0401BD0396
:1010C000015D01019D0301E8E89AB168C8AA7C2B83
:1010D0000BBABD02013D01019D0201E89AB168C849
:1010E000AA7C2B0BBABD02011D01019D0201E89AE9
:1010F000B168C8AA7C2B0BBABD010149FF9D010153
:10110000B168C8AA7C2B0BBA18BD02017D01019DF4
:101110000201E89AB168C8AA7C2B0BBA38BD02015B
:10112000FD01019D0201E89AB168C8AA7C2B0BBAA7
:1011300038A900FD02019D0201A900FD01019D01E8
:1011400001B168C8AA7C2B0BBA38A900FD01019D2A
:101150000101B168C8AA7C2B0BBAA901856ABD023E
:1011600001DD0101F0049002646AE89AA56A9D011C
:1011700001B168C8AA7C2B0BBA646ABD0201DD010B
:1011800001B002E66AE89AA56A9D0101B168C8AAA1
:101190007C2B0BBAA901856ABD0301DD0101D006D4
:1011A000BD0401DD0201F0049002646AE8E8E89AF7
:1011B000A56A9D0101B168C8AA7C2B0BBA646ABDFF
:1011C0000301DD0101B004E66A800CD00ABD040110
:1011D000DD0201B002E66AE8E8E89AA56A9D01012D
:1011E000B168C8AA7C2B0BBA646ABD0201DD01019B
:1011F000D002E66AE89AA56A9D0101B168C8AA7C96
:101200002B0BBA646ABD0201DD0101F002E66AE857
:101210009AA56A9D0101B168C8AA7C2B0BBA646AC1
:10122000BD0301DD0101D00ABD0401DD0201D002D0
:10123000E66AE8E8E89AA56A9D0101B168C8AA7C57
:101240002B0BBAA901856ABD0301DD0101D00ABDDE
:101250000401DD0201D002646AE8E8E89AA56A9D0B
:101260000101B168C8AA7C2B0BBABD0301856ABD18
:101270000201856BBD0101A8B16AE8E89A48B1682E
:10128000C8AA7C2B0BB168C818656648A5676900B9
:1012900048B168C8AA7C2B0BB168C818656648B10C
:1012A00068C8656748B168C8AA7C2B0BFAF0053896
:1012B00098F168A8C8B168C8AA7C2B0B68F005181B
:1012C000987168A8C8B168C8AA7C2B0BFAD00538F9
:1012D00098F168A8C8B168C8AA7C2B0B68D005181B
:1012E000987168A8C8B168C8AA7C2B0B1898716857
:1012F000A8C8B168C8AA7C2B0B3898F168A8C8B1F7
:1013000068C8AA7C2B0BB168C8846AA8B164A46AB7
:1013100048B168C8AA7C2B0BB168C8846AA86891D8
:1013200064A46AB168C8AA7C2B0BB168C8846AA897
:10133000B16448C8B16448A46AB168C8AA7C2B0BE0
:10134000B168C8846AA8C868916488689164A46A0E
:10135000B168C8AA7C2B0BB168C8AAB50048B168AF
:10136000C8AA7C2B0BB168C8AAB50048E8B50048EC
:10137000B168C8AA7C2B0BB168C8AAB50048E8B50B
:101380000048E8B50048E8B50048B168C8AA7C2B19
:101390000BB168C8AA689500B168C8AA7C2B0BB1CC
:1013A00068C8AAE8689500CA689500B168C8AA7CB0
:1013B0002B0BB168C8AAE8E8E8689500CA689500F0
:1013C000CA689500CA689500B168C8AA7C2B0B183A
:1013D000A5637168C8AAFE0001D004CAFE0001B16D
:1013E00068C8AA7C2B0B18A5637168C8AAFE000107
:1013F000B168C8AA7C2B0B18A5637168C8AABD0088
:101400000148B168C8AA7C2B0B18A5637168C8AAEB
:10141000BD000148CABD000148B168C8AA7C2B0BB9
:1014200018A5637168C8AABD000148CABD0001487B
:10143000CABD000148CABD000148B168C8AA7C2BDA
:101440000B18A5637168C8AA689D0001B168C8AA95
:101450007C2B0B18A5637168C8AACA689D0001E8B7
:10146000689D0001B168C8AA7C2B0B18A563716840
:10147000C8AACACACA689D0001E8689D0001E86858
:101480009D0001E8689D0001B168C8AA7C2B0BB1E2
:1014900068C8AA5A20370F7AB168C8AA7C2B0BB14A
:1014A00068C8AA5AA46EA56F20370F856FD004A90B
:1014B000408002A90090020980856C7AB168C8AAB0
:1014C0007C2B0B68856B68856AB26A48B168C8AACC
:1014D0007C2B0BFA68856B68856A8A926AB168C84A
:1014E000AA7C2B0BA56348BA8663B168C8AAA90079
:1014F000E000F0088002800448CA80F4B168C8AAFD
:101500007C2B0B688563B168C8AA7C2B0BB168C8BB
:10151000856A5AA56848A56948A46AB1608568C803
:10152000B1608569A000B168C8AA7C2B0B68856989
:101530006885687AB168C8AA7C2B0B204A0EB1680E
:10154000C8AA7C2B0B80034C3E0FA66D9A60A9FEA7
:1015500085106411203E0EA51A857DA51B857EA9E8
:101560000120FE0DA000B11E917DF008C92ED00112
:1015700060C880F2A92E917DC8A942917DC8A94971
:10158000917DC8A94E917DC8A900917DA57D851E3C
:10159000A57E851F605ADAA576C545D00FA575C50D
:1015A00044D00920380E901564756476641AA90A2F
:1015B000851BA475B11AE675D002E67638FA7A6012
:00000001FF
